:020000040000FA
:020000003028A6
:100008007E1480310B1F09280A282E282100921DF2
:100018000E280F281A282000921D132814281A28A1
:100028007A088A0079080A0080312E282100911D5B
:100038001E281F282E282000911D232824282E281A
:1000480078088A0077080A0080312E282E282E2862
:100058002E282E287E1009003128F701F801F90111
:10006800FA0120308400003085001D3082310322DF
:1000780080317E102000F5298131E4218031031C74
:10008800462847287F285B285B2882312D2280312B
:100098009E289E288231272280319E289E28552816
:1000A800552882311B2280319E289E289E282000B8
:1000B8003A08F1007108F0001130203E86008701EF
:1000C800413F8A00403F0A008031F200F301730883
:1000D800003A0319702855287208013A031955285F
:1000E800033A03194928013A03194E28073A031914
:1000F800552855289E282000A0110230203E860051
:100108008701403F84008501810A00088231392235
:10011800803101302000A3020030A43B23082404CE
:10012800031D972898289A2806309E2803309E2871
:100138009E289E280800823146228031F000200047
:10014800220886008701700881000130F0007008DD
:10015800A2070130A3020030A43B2308240403199A
:10016800B628B728BE2882314E2280310530F228C1
:10017800F228F2282015CE28C128823109228031A0
:10018800F228F228C828C82882310F228031F228A4
:10019800F228F22820003708F0007008F0000B3031
:1001A800203E86008701413F8A00403F0A00803197
:1001B800F100F2017208003A0319E328C82871080F
:1001C800013A0319C828033A0319C128013A031947
:1001D800C128073A0319C828C828F22808002000AF
:1001E80020150929F7288231212280312C292C2930
:1001F80082315822803103302C292C29032982315D
:100208001B2280312C292C292C2920003708F000AA
:100218007008F0000B30203E86008701413F8A00BD
:10022800403F0A008131F100F2017208003A0319D7
:100238001E2903297108013A03190329033A0319EE
:10024800F728013A0319F728073A0319FC28032964
:1002580008002000A0110230F0007008AA00402910
:1002680035298231212281315D295D2982311B2284
:1002780081315D295D295D2920003908F000700869
:10028800F0000F30203E86008701413F8A00403F42
:100298000A008131F100F2017208003A0319552968
:1002A8003A297108023A03193529013A03193529FF
:1002B8003A2908008231552281312000A01D652984
:1002C800662973298131E4218131031C6C296D2948
:1002D80073290F30F40074082000A9007329200046
:1002E8002908F400F501F435F50D89307407840008
:1002F8008130753D8500013F8A00003F0A00813149
:10030800F60076082000A900080033340234C83407
:100318000134D2340134403400349F340034ED3495
:100328000134F33400342D340234273402342134B8
:1003380002341B340234153402340F3402340934C5
:100348000234DB3401342D34013422008C018E0157
:100358003F3021008C003F308E000C3023008E008F
:1003680017308C0024008C018E0121009517220083
:100378009D0108008131A92181318131FC21813120
:1003880082313E22813108002000A0150314210D7E
:100398008231392281310530D12908002000A01589
:1003A80021358231392281310330DA29080082313E
:1003B8006A22813120002010AA010E30E3290800AA
:1003C8002400160E890C890C0139F000700CEC29F8
:1003D80008002000A01182315B2281310430F42909
:1003E80008008131BE2181318B170B17FA2930287B
:1003F8003830210099009801220096010800640015
:1004080080010131890B042A003482314A22823169
:1004180009300E2A080082314A2282310A30142A11
:10042800080082314E22823105301A2A08008231B2
:10043800642282310030202A08008231672282310A
:100448000130262A080082316722823102302C2AA4
:1004580008008231672282310130322A08002000E8
:100468002010AA010E30382A0800F0007008240075
:1004780091000800163021009700080082315222AE
:100488008231080024001108492A08002400961621
:10049800161608002400961216160800200092115D
:1004A8000800200091110800200091150800240080
:1004B800961508000530602A08000130632A0800F4
:0E04C8002400161508002400961408000800F1
:020000040001F9
:04000E00E4FFFFFE0E
:00000001FF
